{
  "_format": "hh-sol-artifact-1",
  "contractName": "SwarmNFT",
  "sourceName": "contracts/swarm/SwarmNFT.sol",
  "abi": [
    {
      "inputs": [
        {
          "internalType": "address",
          "name": "_tokenBoundRegistry",
          "type": "address"
        },
        {
          "internalType": "address",
          "name": "_accountImplementation",
          "type": "address"
        },
        {
          "internalType": "address",
          "name": "_treasury",
          "type": "address"
        }
      ],
      "stateMutability": "nonpayable",
      "type": "constructor"
    },
    {
      "inputs": [],
      "name": "AccessControlBadConfirmation",
      "type": "error"
    },
    {
      "inputs": [
        {
          "internalType": "address",
          "name": "account",
          "type": "address"
        },
        {
          "internalType": "bytes32",
          "name": "neededRole",
          "type": "bytes32"
        }
      ],
      "name": "AccessControlUnauthorizedAccount",
      "type": "error"
    },
    {
      "inputs": [
        {
          "internalType": "address",
          "name": "sender",
          "type": "address"
        },
        {
          "internalType": "uint256",
          "name": "tokenId",
          "type": "uint256"
        },
        {
          "internalType": "address",
          "name": "owner",
          "type": "address"
        }
      ],
      "name": "ERC721IncorrectOwner",
      "type": "error"
    },
    {
      "inputs": [
        {
          "internalType": "address",
          "name": "operator",
          "type": "address"
        },
        {
          "internalType": "uint256",
          "name": "tokenId",
          "type": "uint256"
        }
      ],
      "name": "ERC721InsufficientApproval",
      "type": "error"
    },
    {
      "inputs": [
        {
          "internalType": "address",
          "name": "approver",
          "type": "address"
        }
      ],
      "name": "ERC721InvalidApprover",
      "type": "error"
    },
    {
      "inputs": [
        {
          "internalType": "address",
          "name": "operator",
          "type": "address"
        }
      ],
      "name": "ERC721InvalidOperator",
      "type": "error"
    },
    {
      "inputs": [
        {
          "internalType": "address",
          "name": "owner",
          "type": "address"
        }
      ],
      "name": "ERC721InvalidOwner",
      "type": "error"
    },
    {
      "inputs": [
        {
          "internalType": "address",
          "name": "receiver",
          "type": "address"
        }
      ],
      "name": "ERC721InvalidReceiver",
      "type": "error"
    },
    {
      "inputs": [
        {
          "internalType": "address",
          "name": "sender",
          "type": "address"
        }
      ],
      "name": "ERC721InvalidSender",
      "type": "error"
    },
    {
      "inputs": [
        {
          "internalType": "uint256",
          "name": "tokenId",
          "type": "uint256"
        }
      ],
      "name": "ERC721NonexistentToken",
      "type": "error"
    },
    {
      "inputs": [],
      "name": "ReentrancyGuardReentrantCall",
      "type": "error"
    },
    {
      "anonymous": false,
      "inputs": [
        {
          "indexed": true,
          "internalType": "address",
          "name": "owner",
          "type": "address"
        },
        {
          "indexed": true,
          "internalType": "address",
          "name": "approved",
          "type": "address"
        },
        {
          "indexed": true,
          "internalType": "uint256",
          "name": "tokenId",
          "type": "uint256"
        }
      ],
      "name": "Approval",
      "type": "event"
    },
    {
      "anonymous": false,
      "inputs": [
        {
          "indexed": true,
          "internalType": "address",
          "name": "owner",
          "type": "address"
        },
        {
          "indexed": true,
          "internalType": "address",
          "name": "operator",
          "type": "address"
        },
        {
          "indexed": false,
          "internalType": "bool",
          "name": "approved",
          "type": "bool"
        }
      ],
      "name": "ApprovalForAll",
      "type": "event"
    },
    {
      "anonymous": false,
      "inputs": [
        {
          "indexed": true,
          "internalType": "bytes32",
          "name": "role",
          "type": "bytes32"
        },
        {
          "indexed": true,
          "internalType": "bytes32",
          "name": "previousAdminRole",
          "type": "bytes32"
        },
        {
          "indexed": true,
          "internalType": "bytes32",
          "name": "newAdminRole",
          "type": "bytes32"
        }
      ],
      "name": "RoleAdminChanged",
      "type": "event"
    },
    {
      "anonymous": false,
      "inputs": [
        {
          "indexed": true,
          "internalType": "bytes32",
          "name": "role",
          "type": "bytes32"
        },
        {
          "indexed": true,
          "internalType": "address",
          "name": "account",
          "type": "address"
        },
        {
          "indexed": true,
          "internalType": "address",
          "name": "sender",
          "type": "address"
        }
      ],
      "name": "RoleGranted",
      "type": "event"
    },
    {
      "anonymous": false,
      "inputs": [
        {
          "indexed": true,
          "internalType": "bytes32",
          "name": "role",
          "type": "bytes32"
        },
        {
          "indexed": true,
          "internalType": "address",
          "name": "account",
          "type": "address"
        },
        {
          "indexed": true,
          "internalType": "address",
          "name": "sender",
          "type": "address"
        }
      ],
      "name": "RoleRevoked",
      "type": "event"
    },
    {
      "anonymous": false,
      "inputs": [
        {
          "indexed": true,
          "internalType": "uint256",
          "name": "swarmId",
          "type": "uint256"
        },
        {
          "indexed": false,
          "internalType": "address",
          "name": "account",
          "type": "address"
        }
      ],
      "name": "SwarmAccountCreated",
      "type": "event"
    },
    {
      "anonymous": false,
      "inputs": [
        {
          "indexed": true,
          "internalType": "uint256",
          "name": "swarmId",
          "type": "uint256"
        },
        {
          "indexed": true,
          "internalType": "address",
          "name": "architect",
          "type": "address"
        },
        {
          "indexed": false,
          "internalType": "address",
          "name": "account",
          "type": "address"
        }
      ],
      "name": "SwarmDeployed",
      "type": "event"
    },
    {
      "anonymous": false,
      "inputs": [
        {
          "indexed": true,
          "internalType": "address",
          "name": "from",
          "type": "address"
        },
        {
          "indexed": true,
          "internalType": "address",
          "name": "to",
          "type": "address"
        },
        {
          "indexed": true,
          "internalType": "uint256",
          "name": "tokenId",
          "type": "uint256"
        }
      ],
      "name": "Transfer",
      "type": "event"
    },
    {
      "anonymous": false,
      "inputs": [
        {
          "indexed": true,
          "internalType": "uint256",
          "name": "swarmId",
          "type": "uint256"
        },
        {
          "indexed": false,
          "internalType": "address",
          "name": "treasurer",
          "type": "address"
        }
      ],
      "name": "TreasurerAuthorized",
      "type": "event"
    },
    {
      "inputs": [],
      "name": "ARCHITECT_ROLE",
      "outputs": [
        {
          "internalType": "bytes32",
          "name": "",
          "type": "bytes32"
        }
      ],
      "stateMutability": "view",
      "type": "function"
    },
    {
      "inputs": [],
      "name": "DEFAULT_ADMIN_ROLE",
      "outputs": [
        {
          "internalType": "bytes32",
          "name": "",
          "type": "bytes32"
        }
      ],
      "stateMutability": "view",
      "type": "function"
    },
    {
      "inputs": [],
      "name": "MINT_FEE",
      "outputs": [
        {
          "internalType": "uint256",
          "name": "",
          "type": "uint256"
        }
      ],
      "stateMutability": "view",
      "type": "function"
    },
    {
      "inputs": [],
      "name": "TREASURER_ROLE",
      "outputs": [
        {
          "internalType": "bytes32",
          "name": "",
          "type": "bytes32"
        }
      ],
      "stateMutability": "view",
      "type": "function"
    },
    {
      "inputs": [],
      "name": "accountImplementation",
      "outputs": [
        {
          "internalType": "address",
          "name": "",
          "type": "address"
        }
      ],
      "stateMutability": "view",
      "type": "function"
    },
    {
      "inputs": [
        {
          "internalType": "address",
          "name": "to",
          "type": "address"
        },
        {
          "internalType": "uint256",
          "name": "tokenId",
          "type": "uint256"
        }
      ],
      "name": "approve",
      "outputs": [],
      "stateMutability": "nonpayable",
      "type": "function"
    },
    {
      "inputs": [
        {
          "internalType": "uint256",
          "name": "swarmId",
          "type": "uint256"
        },
        {
          "internalType": "address",
          "name": "treasurer",
          "type": "address"
        }
      ],
      "name": "authorizeTreasurer",
      "outputs": [],
      "stateMutability": "nonpayable",
      "type": "function"
    },
    {
      "inputs": [
        {
          "internalType": "address",
          "name": "owner",
          "type": "address"
        }
      ],
      "name": "balanceOf",
      "outputs": [
        {
          "internalType": "uint256",
          "name": "",
          "type": "uint256"
        }
      ],
      "stateMutability": "view",
      "type": "function"
    },
    {
      "inputs": [
        {
          "internalType": "string",
          "name": "name",
          "type": "string"
        }
      ],
      "name": "deploySwarm",
      "outputs": [
        {
          "internalType": "uint256",
          "name": "swarmId",
          "type": "uint256"
        }
      ],
      "stateMutability": "payable",
      "type": "function"
    },
    {
      "inputs": [
        {
          "internalType": "uint256",
          "name": "tokenId",
          "type": "uint256"
        }
      ],
      "name": "getApproved",
      "outputs": [
        {
          "internalType": "address",
          "name": "",
          "type": "address"
        }
      ],
      "stateMutability": "view",
      "type": "function"
    },
    {
      "inputs": [
        {
          "internalType": "bytes32",
          "name": "role",
          "type": "bytes32"
        }
      ],
      "name": "getRoleAdmin",
      "outputs": [
        {
          "internalType": "bytes32",
          "name": "",
          "type": "bytes32"
        }
      ],
      "stateMutability": "view",
      "type": "function"
    },
    {
      "inputs": [
        {
          "internalType": "uint256",
          "name": "swarmId",
          "type": "uint256"
        }
      ],
      "name": "getSwarmAccount",
      "outputs": [
        {
          "internalType": "address",
          "name": "",
          "type": "address"
        }
      ],
      "stateMutability": "view",
      "type": "function"
    },
    {
      "inputs": [
        {
          "internalType": "uint256",
          "name": "swarmId",
          "type": "uint256"
        }
      ],
      "name": "getSwarmConfig",
      "outputs": [
        {
          "components": [
            {
              "internalType": "string",
              "name": "name",
              "type": "string"
            },
            {
              "internalType": "uint8",
              "name": "scoutLevel",
              "type": "uint8"
            },
            {
              "internalType": "uint8",
              "name": "builderLevel",
              "type": "uint8"
            },
            {
              "internalType": "uint8",
              "name": "closerLevel",
              "type": "uint8"
            },
            {
              "internalType": "uint8",
              "name": "treasurerLevel",
              "type": "uint8"
            },
            {
              "internalType": "uint256",
              "name": "energyBalance",
              "type": "uint256"
            },
            {
              "internalType": "uint256",
              "name": "computeBalance",
              "type": "uint256"
            },
            {
              "internalType": "uint256",
              "name": "dataBalance",
              "type": "uint256"
            }
          ],
          "internalType": "struct SwarmNFT.SwarmConfig",
          "name": "",
          "type": "tuple"
        }
      ],
      "stateMutability": "view",
      "type": "function"
    },
    {
      "inputs": [
        {
          "internalType": "bytes32",
          "name": "role",
          "type": "bytes32"
        },
        {
          "internalType": "address",
          "name": "account",
          "type": "address"
        }
      ],
      "name": "grantRole",
      "outputs": [],
      "stateMutability": "nonpayable",
      "type": "function"
    },
    {
      "inputs": [
        {
          "internalType": "bytes32",
          "name": "role",
          "type": "bytes32"
        },
        {
          "internalType": "address",
          "name": "account",
          "type": "address"
        }
      ],
      "name": "hasRole",
      "outputs": [
        {
          "internalType": "bool",
          "name": "",
          "type": "bool"
        }
      ],
      "stateMutability": "view",
      "type": "function"
    },
    {
      "inputs": [
        {
          "internalType": "address",
          "name": "owner",
          "type": "address"
        },
        {
          "internalType": "address",
          "name": "operator",
          "type": "address"
        }
      ],
      "name": "isApprovedForAll",
      "outputs": [
        {
          "internalType": "bool",
          "name": "",
          "type": "bool"
        }
      ],
      "stateMutability": "view",
      "type": "function"
    },
    {
      "inputs": [],
      "name": "name",
      "outputs": [
        {
          "internalType": "string",
          "name": "",
          "type": "string"
        }
      ],
      "stateMutability": "view",
      "type": "function"
    },
    {
      "inputs": [
        {
          "internalType": "uint256",
          "name": "tokenId",
          "type": "uint256"
        }
      ],
      "name": "ownerOf",
      "outputs": [
        {
          "internalType": "address",
          "name": "",
          "type": "address"
        }
      ],
      "stateMutability": "view",
      "type": "function"
    },
    {
      "inputs": [
        {
          "internalType": "bytes32",
          "name": "role",
          "type": "bytes32"
        },
        {
          "internalType": "address",
          "name": "callerConfirmation",
          "type": "address"
        }
      ],
      "name": "renounceRole",
      "outputs": [],
      "stateMutability": "nonpayable",
      "type": "function"
    },
    {
      "inputs": [
        {
          "internalType": "bytes32",
          "name": "role",
          "type": "bytes32"
        },
        {
          "internalType": "address",
          "name": "account",
          "type": "address"
        }
      ],
      "name": "revokeRole",
      "outputs": [],
      "stateMutability": "nonpayable",
      "type": "function"
    },
    {
      "inputs": [
        {
          "internalType": "uint256",
          "name": "swarmId",
          "type": "uint256"
        },
        {
          "internalType": "address",
          "name": "treasurer",
          "type": "address"
        }
      ],
      "name": "revokeTreasurer",
      "outputs": [],
      "stateMutability": "nonpayable",
      "type": "function"
    },
    {
      "inputs": [
        {
          "internalType": "address",
          "name": "from",
          "type": "address"
        },
        {
          "internalType": "address",
          "name": "to",
          "type": "address"
        },
        {
          "internalType": "uint256",
          "name": "tokenId",
          "type": "uint256"
        }
      ],
      "name": "safeTransferFrom",
      "outputs": [],
      "stateMutability": "nonpayable",
      "type": "function"
    },
    {
      "inputs": [
        {
          "internalType": "address",
          "name": "from",
          "type": "address"
        },
        {
          "internalType": "address",
          "name": "to",
          "type": "address"
        },
        {
          "internalType": "uint256",
          "name": "tokenId",
          "type": "uint256"
        },
        {
          "internalType": "bytes",
          "name": "data",
          "type": "bytes"
        }
      ],
      "name": "safeTransferFrom",
      "outputs": [],
      "stateMutability": "nonpayable",
      "type": "function"
    },
    {
      "inputs": [
        {
          "internalType": "address",
          "name": "operator",
          "type": "address"
        },
        {
          "internalType": "bool",
          "name": "approved",
          "type": "bool"
        }
      ],
      "name": "setApprovalForAll",
      "outputs": [],
      "stateMutability": "nonpayable",
      "type": "function"
    },
    {
      "inputs": [
        {
          "internalType": "bytes4",
          "name": "interfaceId",
          "type": "bytes4"
        }
      ],
      "name": "supportsInterface",
      "outputs": [
        {
          "internalType": "bool",
          "name": "",
          "type": "bool"
        }
      ],
      "stateMutability": "view",
      "type": "function"
    },
    {
      "inputs": [
        {
          "internalType": "uint256",
          "name": "",
          "type": "uint256"
        }
      ],
      "name": "swarmAccount",
      "outputs": [
        {
          "internalType": "address",
          "name": "",
          "type": "address"
        }
      ],
      "stateMutability": "view",
      "type": "function"
    },
    {
      "inputs": [
        {
          "internalType": "uint256",
          "name": "",
          "type": "uint256"
        }
      ],
      "name": "swarmArchitect",
      "outputs": [
        {
          "internalType": "address",
          "name": "",
          "type": "address"
        }
      ],
      "stateMutability": "view",
      "type": "function"
    },
    {
      "inputs": [
        {
          "internalType": "uint256",
          "name": "",
          "type": "uint256"
        }
      ],
      "name": "swarmConfigs",
      "outputs": [
        {
          "internalType": "string",
          "name": "name",
          "type": "string"
        },
        {
          "internalType": "uint8",
          "name": "scoutLevel",
          "type": "uint8"
        },
        {
          "internalType": "uint8",
          "name": "builderLevel",
          "type": "uint8"
        },
        {
          "internalType": "uint8",
          "name": "closerLevel",
          "type": "uint8"
        },
        {
          "internalType": "uint8",
          "name": "treasurerLevel",
          "type": "uint8"
        },
        {
          "internalType": "uint256",
          "name": "energyBalance",
          "type": "uint256"
        },
        {
          "internalType": "uint256",
          "name": "computeBalance",
          "type": "uint256"
        },
        {
          "internalType": "uint256",
          "name": "dataBalance",
          "type": "uint256"
        }
      ],
      "stateMutability": "view",
      "type": "function"
    },
    {
      "inputs": [],
      "name": "symbol",
      "outputs": [
        {
          "internalType": "string",
          "name": "",
          "type": "string"
        }
      ],
      "stateMutability": "view",
      "type": "function"
    },
    {
      "inputs": [],
      "name": "tokenBoundRegistry",
      "outputs": [
        {
          "internalType": "address",
          "name": "",
          "type": "address"
        }
      ],
      "stateMutability": "view",
      "type": "function"
    },
    {
      "inputs": [
        {
          "internalType": "uint256",
          "name": "tokenId",
          "type": "uint256"
        }
      ],
      "name": "tokenURI",
      "outputs": [
        {
          "internalType": "string",
          "name": "",
          "type": "string"
        }
      ],
      "stateMutability": "view",
      "type": "function"
    },
    {
      "inputs": [],
      "name": "totalRevenue",
      "outputs": [
        {
          "internalType": "uint256",
          "name": "",
          "type": "uint256"
        }
      ],
      "stateMutability": "view",
      "type": "function"
    },
    {
      "inputs": [],
      "name": "totalSwarms",
      "outputs": [
        {
          "internalType": "uint256",
          "name": "",
          "type": "uint256"
        }
      ],
      "stateMutability": "view",
      "type": "function"
    },
    {
      "inputs": [
        {
          "internalType": "address",
          "name": "from",
          "type": "address"
        },
        {
          "internalType": "address",
          "name": "to",
          "type": "address"
        },
        {
          "internalType": "uint256",
          "name": "tokenId",
          "type": "uint256"
        }
      ],
      "name": "transferFrom",
      "outputs": [],
      "stateMutability": "nonpayable",
      "type": "function"
    },
    {
      "inputs": [],
      "name": "treasury",
      "outputs": [
        {
          "internalType": "address",
          "name": "",
          "type": "address"
        }
      ],
      "stateMutability": "view",
      "type": "function"
    }
  ],
  "bytecode": "0x60c060405234801561000f575f80fd5b506040516125fc3803806125fc83398101604081905261002e916102c1565b6040518060400160405280601081526020016f4165746865722d57617220537761726d60801b81525060405180604001604052806005815260200164535741524d60d81b815250815f90816100839190610399565b5060016100908282610399565b50505060016100a96100a66101d560201b60201c565b90565b556001600160a01b0383166100f85760405162461bcd60e51b815260206004820152601060248201526f496e76616c696420726567697374727960801b60448201526064015b60405180910390fd5b6001600160a01b03821661014e5760405162461bcd60e51b815260206004820152601660248201527f496e76616c696420696d706c656d656e746174696f6e0000000000000000000060448201526064016100ef565b6001600160a01b0381166101975760405162461bcd60e51b815260206004820152601060248201526f496e76616c696420747265617375727960801b60448201526064016100ef565b6001600160a01b0383811660805282811660a052600980546001600160a01b0319169183169190911790556101cc5f336101f9565b50505050610458565b7f9b779b17422d0df92223018b32b4d1fa46e071723d6817e2486d003becc55f0090565b5f8281526006602090815260408083206001600160a01b038516845290915281205460ff1661029d575f8381526006602090815260408083206001600160a01b03861684529091529020805460ff191660011790556102553390565b6001600160a01b0316826001600160a01b0316847f2f8788117e7eff1d82e926ec794901d17c78024a50270940304540a733656f0d60405160405180910390a45060016102a0565b505f5b92915050565b80516001600160a01b03811681146102bc575f80fd5b919050565b5f805f606084860312156102d3575f80fd5b6102dc846102a6565b92506102ea602085016102a6565b91506102f8604085016102a6565b90509250925092565b634e487b7160e01b5f52604160045260245ffd5b600181811c9082168061032957607f821691505b60208210810361034757634e487b7160e01b5f52602260045260245ffd5b50919050565b601f82111561039457805f5260205f20601f840160051c810160208510156103725750805b601f840160051c820191505b81811015610391575f815560010161037e565b50505b505050565b81516001600160401b038111156103b2576103b2610301565b6103c6816103c08454610315565b8461034d565b602080601f8311600181146103f9575f84156103e25750858301515b5f19600386901b1c1916600185901b178555610450565b5f85815260208120601f198616915b8281101561042757888601518255948401946001909101908401610408565b508582101561044457878501515f19600388901b60f8161c191681555b505060018460011b0185555b505050505050565b60805160a0516121756104875f395f81816102be0152610c6801525f81816106dc0152610c3b01526121755ff3fe6080604052600436106101fc575f3560e01c806395d1151311610113578063c87b56dd1161009d578063db26c9071161006d578063db26c9071461063b578063e68b38e71461065a578063e985e9c514610679578063f0a3a97c14610698578063fdf250df146106cb575f80fd5b8063c87b56dd146105af578063c9653cd2146105ce578063d547741f14610602578063d7bf81a314610621575f80fd5b8063a22cb465116100e3578063a22cb46514610514578063ab11cf9914610533578063b88d4fde14610547578063bf2d9e0b14610566578063c04593e01461057b575f80fd5b806395d11513146104a757806395d89b41146104da5780639a096777146104ee578063a217fddf14610501575f80fd5b806336568abe116101945780636352211e116101645780636352211e146103e35780636a9198961461040257806370a082311461043657806380c332f41461045557806391d1485414610488575f80fd5b806336568abe1461035a5780633c13eb451461037957806342842e0e146103a557806361d027b3146103c4575f80fd5b806311464fbe116101cf57806311464fbe146102ad57806323b872dd146102e0578063248a9ca3146102ff5780632f2ff15d1461033b575f80fd5b806301ffc9a71461020057806306fdde0314610234578063081812fc14610255578063095ea7b31461028c575b5f80fd5b34801561020b575f80fd5b5061021f61021a366004611b32565b6106fe565b60405190151581526020015b60405180910390f35b34801561023f575f80fd5b5061024861070e565b60405161022b9190611b7b565b348015610260575f80fd5b5061027461026f366004611b8d565b61079d565b6040516001600160a01b03909116815260200161022b565b348015610297575f80fd5b506102ab6102a6366004611bb8565b6107c4565b005b3480156102b8575f80fd5b506102747f000000000000000000000000000000000000000000000000000000000000000081565b3480156102eb575f80fd5b506102ab6102fa366004611be2565b6107d3565b34801561030a575f80fd5b5061032d610319366004611b8d565b5f9081526006602052604090206001015490565b60405190815260200161022b565b348015610346575f80fd5b506102ab610355366004611c20565b610861565b348015610365575f80fd5b506102ab610374366004611c20565b610885565b348015610384575f80fd5b50610398610393366004611b8d565b6108bd565b60405161022b9190611c4e565b3480156103b0575f80fd5b506102ab6103bf366004611be2565b610a00565b3480156103cf575f80fd5b50600954610274906001600160a01b031681565b3480156103ee575f80fd5b506102746103fd366004611b8d565b610a1a565b34801561040d575f80fd5b5061027461041c366004611b8d565b5f908152600860205260409020546001600160a01b031690565b348015610441575f80fd5b5061032d610450366004611cd4565b610a24565b348015610460575f80fd5b5061047461046f366004611b8d565b610a69565b60405161022b989796959493929190611cef565b348015610493575f80fd5b5061021f6104a2366004611c20565b610b3a565b3480156104b2575f80fd5b5061032d7fd81d72b65535f1777b4b20777e5306dade95bd1fde525ef999f6bd610befc1d481565b3480156104e5575f80fd5b50610248610b64565b61032d6104fc366004611dc7565b610b73565b34801561050c575f80fd5b5061032d5f81565b34801561051f575f80fd5b506102ab61052e366004611e0c565b610f35565b34801561053e575f80fd5b5060075461032d565b348015610552575f80fd5b506102ab610561366004611e3c565b610f40565b348015610571575f80fd5b5061032d600a5481565b348015610586575f80fd5b50610274610595366004611b8d565b60086020525f90815260409020546001600160a01b031681565b3480156105ba575f80fd5b506102486105c9366004611b8d565b610f58565b3480156105d9575f80fd5b506102746105e8366004611b8d565b600b6020525f90815260409020546001600160a01b031681565b34801561060d575f80fd5b506102ab61061c366004611c20565b610fc9565b34801561062c575f80fd5b5061032d662386f26fc1000081565b348015610646575f80fd5b506102ab610655366004611c20565b610fed565b348015610665575f80fd5b506102ab610674366004611c20565b611162565b348015610684575f80fd5b5061021f610693366004611eb7565b611253565b3480156106a3575f80fd5b5061032d7f3496e2e73c4d42b75d702e60d9e48102720b8691234415963a5a857b86425d0781565b3480156106d6575f80fd5b506102747f000000000000000000000000000000000000000000000000000000000000000081565b5f61070882611280565b92915050565b60605f805461071c90611ee3565b80601f016020809104026020016040519081016040528092919081815260200182805461074890611ee3565b80156107935780601f1061076a57610100808354040283529160200191610793565b820191905f5260205f20905b81548152906001019060200180831161077657829003601f168201915b5050505050905090565b5f6107a7826112a4565b505f828152600460205260409020546001600160a01b0316610708565b6107cf8282336112dc565b5050565b6001600160a01b03821661080157604051633250574960e11b81525f60048201526024015b60405180910390fd5b5f61080d8383336112e9565b9050836001600160a01b0316816001600160a01b03161461085b576040516364283d7b60e01b81526001600160a01b03808616600483015260248201849052821660448201526064016107f8565b50505050565b5f8281526006602052604090206001015461087b816113db565b61085b83836113e8565b6001600160a01b03811633146108ae5760405163334bd91960e11b815260040160405180910390fd5b6108b88282611479565b505050565b604080516101008101825260608082525f6020830181905292820183905281018290526080810182905260a0810182905260c0810182905260e08101919091525f828152600c6020526040908190208151610100810190925280548290829061092590611ee3565b80601f016020809104026020016040519081016040528092919081815260200182805461095190611ee3565b801561099c5780601f106109735761010080835404028352916020019161099c565b820191905f5260205f20905b81548152906001019060200180831161097f57829003601f168201915b5050509183525050600182015460ff8082166020840152610100820481166040840152620100008204811660608401526301000000909104166080820152600282015460a0820152600382015460c082015260049091015460e09091015292915050565b6108b883838360405180602001604052805f815250610f40565b5f610708826112a4565b5f6001600160a01b038216610a4e576040516322718ad960e21b81525f60048201526024016107f8565b506001600160a01b03165f9081526003602052604090205490565b600c6020525f9081526040902080548190610a8390611ee3565b80601f0160208091040260200160405190810160405280929190818152602001828054610aaf90611ee3565b8015610afa5780601f10610ad157610100808354040283529160200191610afa565b820191905f5260205f20905b815481529060010190602001808311610add57829003601f168201915b505050600184015460028501546003860154600490960154949560ff80841696610100850482169650620100008504821695506301000000909404169288565b5f9182526006602090815260408084206001600160a01b0393909316845291905290205460ff1690565b60606001805461071c90611ee3565b5f662386f26fc10000341015610bc35760405162461bcd60e51b8152602060048201526015602482015274496e73756666696369656e74206d696e742066656560581b60448201526064016107f8565b60075f8154610bd190611f2f565b91829055509050610be233826114e4565b604051336024820152604481018290525f9060640160408051601f198184030181529181526020820180516001600160e01b031663cd6dc68760e01b1790525163da7323b360e01b81529091505f906001600160a01b037f0000000000000000000000000000000000000000000000000000000000000000169063da7323b390610c9a907f00000000000000000000000000000000000000000000000000000000000000009046903090899088908a90600401611f47565b6020604051808303815f875af1158015610cb6573d5f803e3d5ffd5b505050506040513d601f19601f82011682018060405250810190610cda9190611f8f565b5f84815260086020908152604080832080546001600160a01b0386166001600160a01b031991821617909155600b8352818420805490911633179055805161010081018252888152600181840181905281830181905260608201819052608082015268056bc75e2d6310000060a0820152678ac7230489e8000060c082015260e08101849052878452600c909252909120815192935090918190610d7e9082611fee565b50602082015160018201805460408501516060860151608087015160ff90811663010000000263ff0000001992821662010000029290921663ffff0000199382166101000261ffff19909516919096161792909217169290921791909117905560a0820151600282015560c0820151600382015560e090910151600490910155610e287fd81d72b65535f1777b4b20777e5306dade95bd1fde525ef999f6bd610befc1d4336113e8565b506009546040515f916001600160a01b031690662386f26fc10000908381818185875af1925050503d805f8114610e7a576040519150601f19603f3d011682016040523d82523d5f602084013e610e7f565b606091505b5050905080610ed05760405162461bcd60e51b815260206004820152601860248201527f5472656173757279207472616e73666572206661696c6564000000000000000060448201526064016107f8565b662386f26fc10000600a5f828254610ee891906120aa565b90915550506040516001600160a01b0383168152339085907f2c30f1e45458aaa5ffe400157626f57f46fe469a21acc74b711656c4eb58474d9060200160405180910390a3505050919050565b6107cf3383836114fd565b610f4b8484846107d3565b61085b33858585856115c4565b6060610f63826112a4565b505f610f7960408051602081019091525f815290565b90505f815111610f975760405180602001604052805f815250610fc2565b80610fa1846116ea565b604051602001610fb29291906120d4565b6040516020818303038152906040525b9392505050565b5f82815260066020526040902060010154610fe3816113db565b61085b8383611479565b5f828152600b60205260409020546001600160a01b031633146110435760405162461bcd60e51b815260206004820152600e60248201526d13db9b1e48105c98da1a5d1958dd60921b60448201526064016107f8565b6001600160a01b0381166110885760405162461bcd60e51b815260206004820152600c60248201526b5a65726f206164647265737360a01b60448201526064016107f8565b6110b27f3496e2e73c4d42b75d702e60d9e48102720b8691234415963a5a857b86425d07826113e8565b505f8281526008602052604090819020549051631e1bff3f60e01b81526001600160a01b0383811660048301526001602483015290911690631e1bff3f906044015f604051808303815f87803b15801561110a575f80fd5b505af115801561111c573d5f803e3d5ffd5b50506040516001600160a01b03841681528492507f39cd1c2c35381e05dad97cac7d6a70fd2452c44df043b29a3bd1a59768c8b254915060200160405180910390a25050565b5f828152600b60205260409020546001600160a01b031633146111b85760405162461bcd60e51b815260206004820152600e60248201526d13db9b1e48105c98da1a5d1958dd60921b60448201526064016107f8565b6111e27f3496e2e73c4d42b75d702e60d9e48102720b8691234415963a5a857b86425d0782611479565b505f82815260086020526040808220549051631e1bff3f60e01b81526001600160a01b0384811660048301526024820193909352911690631e1bff3f906044015f604051808303815f87803b158015611239575f80fd5b505af115801561124b573d5f803e3d5ffd5b505050505050565b6001600160a01b039182165f90815260056020908152604080832093909416825291909152205460ff1690565b5f6001600160e01b03198216637965db0b60e01b148061070857506107088261177a565b5f818152600260205260408120546001600160a01b03168061070857604051637e27328960e01b8152600481018490526024016107f8565b6108b883838360016117c9565b5f828152600260205260408120546001600160a01b0390811690831615611315576113158184866118cd565b6001600160a01b0381161561134f576113305f855f806117c9565b6001600160a01b0381165f90815260036020526040902080545f190190555b6001600160a01b0385161561137d576001600160a01b0385165f908152600360205260409020805460010190555b5f8481526002602052604080822080546001600160a01b0319166001600160a01b0389811691821790925591518793918516917fddf252ad1be2c89b69c2b068fc378daa952ba7f163c4a11628f55a4df523b3ef91a4949350505050565b6113e58133611931565b50565b5f6113f38383610b3a565b611472575f8381526006602090815260408083206001600160a01b03861684529091529020805460ff1916600117905561142a3390565b6001600160a01b0316826001600160a01b0316847f2f8788117e7eff1d82e926ec794901d17c78024a50270940304540a733656f0d60405160405180910390a4506001610708565b505f610708565b5f6114848383610b3a565b15611472575f8381526006602090815260408083206001600160a01b0386168085529252808320805460ff1916905551339286917ff6391f5c32d9c69d2a47ea670b442974b53935d1edc7fd64eb21e047a839171b9190a4506001610708565b6107cf828260405180602001604052805f81525061196a565b6001600160a01b0383166115265760405163a9fbf51f60e01b81525f60048201526024016107f8565b6001600160a01b03821661155857604051630b61174360e31b81526001600160a01b03831660048201526024016107f8565b6001600160a01b038381165f81815260056020908152604080832094871680845294825291829020805460ff191686151590811790915591519182527f17307eab39ab6107e8899845ad3d59bd9653f200f220920489ca2b5937696c31910160405180910390a3505050565b6001600160a01b0383163b156116e357604051630a85bd0160e11b81526001600160a01b0384169063150b7a02906116069088908890879087906004016120e8565b6020604051808303815f875af1925050508015611640575060408051601f3d908101601f1916820190925261163d91810190612124565b60015b6116a7573d80801561166d576040519150601f19603f3d011682016040523d82523d5f602084013e611672565b606091505b5080515f0361169f57604051633250574960e11b81526001600160a01b03851660048201526024016107f8565b805160208201fd5b6001600160e01b03198116630a85bd0160e11b1461124b57604051633250574960e11b81526001600160a01b03851660048201526024016107f8565b5050505050565b60605f6116f683611981565b60010190505f8167ffffffffffffffff81111561171557611715611d40565b6040519080825280601f01601f19166020018201604052801561173f576020820181803683370190505b5090508181016020015b5f19016f181899199a1a9b1b9c1cb0b131b232b360811b600a86061a8153600a850494508461174957509392505050565b5f6001600160e01b031982166380ac58cd60e01b14806117aa57506001600160e01b03198216635b5e139f60e01b145b8061070857506301ffc9a760e01b6001600160e01b0319831614610708565b80806117dd57506001600160a01b03821615155b1561189e575f6117ec846112a4565b90506001600160a01b038316158015906118185750826001600160a01b0316816001600160a01b031614155b801561182b57506118298184611253565b155b156118545760405163a9fbf51f60e01b81526001600160a01b03841660048201526024016107f8565b811561189c5783856001600160a01b0316826001600160a01b03167f8c5be1e5ebec7d5bd14f71427d1e84f3dd0314c0f7b2291e5b200ac8c7c3b92560405160405180910390a45b505b50505f90815260046020526040902080546001600160a01b0319166001600160a01b0392909216919091179055565b6118d8838383611a58565b6108b8576001600160a01b03831661190657604051637e27328960e01b8152600481018290526024016107f8565b60405163177e802f60e01b81526001600160a01b0383166004820152602481018290526044016107f8565b61193b8282610b3a565b6107cf5760405163e2517d3f60e01b81526001600160a01b0382166004820152602481018390526044016107f8565b6119748383611abc565b6108b8335f8585856115c4565b5f8072184f03e93ff9f4daa797ed6e38ed64bf6a1f0160401b83106119bf5772184f03e93ff9f4daa797ed6e38ed64bf6a1f0160401b830492506040015b6d04ee2d6d415b85acef810000000083106119eb576d04ee2d6d415b85acef8100000000830492506020015b662386f26fc100008310611a0957662386f26fc10000830492506010015b6305f5e1008310611a21576305f5e100830492506008015b6127108310611a3557612710830492506004015b60648310611a47576064830492506002015b600a83106107085760010192915050565b5f6001600160a01b03831615801590611ab45750826001600160a01b0316846001600160a01b03161480611a915750611a918484611253565b80611ab457505f828152600460205260409020546001600160a01b038481169116145b949350505050565b6001600160a01b038216611ae557604051633250574960e11b81525f60048201526024016107f8565b5f611af183835f6112e9565b90506001600160a01b038116156108b8576040516339e3563760e11b81525f60048201526024016107f8565b6001600160e01b0319811681146113e5575f80fd5b5f60208284031215611b42575f80fd5b8135610fc281611b1d565b5f81518084528060208401602086015e5f602082860101526020601f19601f83011685010191505092915050565b602081525f610fc26020830184611b4d565b5f60208284031215611b9d575f80fd5b5035919050565b6001600160a01b03811681146113e5575f80fd5b5f8060408385031215611bc9575f80fd5b8235611bd481611ba4565b946020939093013593505050565b5f805f60608486031215611bf4575f80fd5b8335611bff81611ba4565b92506020840135611c0f81611ba4565b929592945050506040919091013590565b5f8060408385031215611c31575f80fd5b823591506020830135611c4381611ba4565b809150509250929050565b602081525f8251610100806020850152611c6c610120850183611b4d565b915060ff602086015116604085015260ff60408601511660608501526060850151611c9c608086018260ff169052565b50608085015160ff811660a08601525060a085015160c085015260c085015160e085015260e085015181850152508091505092915050565b5f60208284031215611ce4575f80fd5b8135610fc281611ba4565b5f610100808352611d028184018c611b4d565b60ff9a8b166020850152988a1660408401525050948716606086015292909516608084015260a083015260c082019390935260e00191909152919050565b634e487b7160e01b5f52604160045260245ffd5b5f67ffffffffffffffff80841115611d6e57611d6e611d40565b604051601f8501601f19908116603f01168101908282118183101715611d9657611d96611d40565b81604052809350858152868686011115611dae575f80fd5b858560208301375f602087830101525050509392505050565b5f60208284031215611dd7575f80fd5b813567ffffffffffffffff811115611ded575f80fd5b8201601f81018413611dfd575f80fd5b611ab484823560208401611d54565b5f8060408385031215611e1d575f80fd5b8235611e2881611ba4565b915060208301358015158114611c43575f80fd5b5f805f8060808587031215611e4f575f80fd5b8435611e5a81611ba4565b93506020850135611e6a81611ba4565b925060408501359150606085013567ffffffffffffffff811115611e8c575f80fd5b8501601f81018713611e9c575f80fd5b611eab87823560208401611d54565b91505092959194509250565b5f8060408385031215611ec8575f80fd5b8235611ed381611ba4565b91506020830135611c4381611ba4565b600181811c90821680611ef757607f821691505b602082108103611f1557634e487b7160e01b5f52602260045260245ffd5b50919050565b634e487b7160e01b5f52601160045260245ffd5b5f60018201611f4057611f40611f1b565b5060010190565b5f60018060a01b03808916835287602084015280871660408401525084606083015283608083015260c060a0830152611f8360c0830184611b4d565b98975050505050505050565b5f60208284031215611f9f575f80fd5b8151610fc281611ba4565b601f8211156108b857805f5260205f20601f840160051c81016020851015611fcf5750805b601f840160051c820191505b818110156116e3575f8155600101611fdb565b815167ffffffffffffffff81111561200857612008611d40565b61201c816120168454611ee3565b84611faa565b602080601f83116001811461204f575f84156120385750858301515b5f19600386901b1c1916600185901b17855561124b565b5f85815260208120601f198616915b8281101561207d5788860151825594840194600190910190840161205e565b508582101561209a57878501515f19600388901b60f8161c191681555b5050505050600190811b01905550565b8082018082111561070857610708611f1b565b5f81518060208401855e5f93019283525090919050565b5f611ab46120e283866120bd565b846120bd565b6001600160a01b03858116825284166020820152604081018390526080606082018190525f9061211a90830184611b4d565b9695505050505050565b5f60208284031215612134575f80fd5b8151610fc281611b1d56fea26469706673582212209e16022330511cc7994b2f0d9c4957b1c446d6a2ed3304c314612452abdf63fc64736f6c63430008190033",
  "linkReferences": {},
  "deployedLinkReferences": {}
}