{
  "_format": "hh-sol-artifact-1",
  "contractName": "SwarmNFT",
  "sourceName": "contracts/swarm/SwarmNFT.sol",
  "abi": [
    {
      "inputs": [
        {
          "internalType": "address",
          "name": "_tokenBoundRegistry",
          "type": "address"
        },
        {
          "internalType": "address",
          "name": "_accountImplementation",
          "type": "address"
        },
        {
          "internalType": "address",
          "name": "_treasury",
          "type": "address"
        }
      ],
      "stateMutability": "nonpayable",
      "type": "constructor"
    },
    {
      "inputs": [],
      "name": "AccessControlBadConfirmation",
      "type": "error"
    },
    {
      "inputs": [
        {
          "internalType": "address",
          "name": "account",
          "type": "address"
        },
        {
          "internalType": "bytes32",
          "name": "neededRole",
          "type": "bytes32"
        }
      ],
      "name": "AccessControlUnauthorizedAccount",
      "type": "error"
    },
    {
      "inputs": [
        {
          "internalType": "address",
          "name": "sender",
          "type": "address"
        },
        {
          "internalType": "uint256",
          "name": "tokenId",
          "type": "uint256"
        },
        {
          "internalType": "address",
          "name": "owner",
          "type": "address"
        }
      ],
      "name": "ERC721IncorrectOwner",
      "type": "error"
    },
    {
      "inputs": [
        {
          "internalType": "address",
          "name": "operator",
          "type": "address"
        },
        {
          "internalType": "uint256",
          "name": "tokenId",
          "type": "uint256"
        }
      ],
      "name": "ERC721InsufficientApproval",
      "type": "error"
    },
    {
      "inputs": [
        {
          "internalType": "address",
          "name": "approver",
          "type": "address"
        }
      ],
      "name": "ERC721InvalidApprover",
      "type": "error"
    },
    {
      "inputs": [
        {
          "internalType": "address",
          "name": "operator",
          "type": "address"
        }
      ],
      "name": "ERC721InvalidOperator",
      "type": "error"
    },
    {
      "inputs": [
        {
          "internalType": "address",
          "name": "owner",
          "type": "address"
        }
      ],
      "name": "ERC721InvalidOwner",
      "type": "error"
    },
    {
      "inputs": [
        {
          "internalType": "address",
          "name": "receiver",
          "type": "address"
        }
      ],
      "name": "ERC721InvalidReceiver",
      "type": "error"
    },
    {
      "inputs": [
        {
          "internalType": "address",
          "name": "sender",
          "type": "address"
        }
      ],
      "name": "ERC721InvalidSender",
      "type": "error"
    },
    {
      "inputs": [
        {
          "internalType": "uint256",
          "name": "tokenId",
          "type": "uint256"
        }
      ],
      "name": "ERC721NonexistentToken",
      "type": "error"
    },
    {
      "inputs": [],
      "name": "ReentrancyGuardReentrantCall",
      "type": "error"
    },
    {
      "anonymous": false,
      "inputs": [
        {
          "indexed": true,
          "internalType": "address",
          "name": "owner",
          "type": "address"
        },
        {
          "indexed": true,
          "internalType": "address",
          "name": "approved",
          "type": "address"
        },
        {
          "indexed": true,
          "internalType": "uint256",
          "name": "tokenId",
          "type": "uint256"
        }
      ],
      "name": "Approval",
      "type": "event"
    },
    {
      "anonymous": false,
      "inputs": [
        {
          "indexed": true,
          "internalType": "address",
          "name": "owner",
          "type": "address"
        },
        {
          "indexed": true,
          "internalType": "address",
          "name": "operator",
          "type": "address"
        },
        {
          "indexed": false,
          "internalType": "bool",
          "name": "approved",
          "type": "bool"
        }
      ],
      "name": "ApprovalForAll",
      "type": "event"
    },
    {
      "anonymous": false,
      "inputs": [
        {
          "indexed": true,
          "internalType": "address",
          "name": "player",
          "type": "address"
        },
        {
          "indexed": false,
          "internalType": "uint256",
          "name": "swarmId",
          "type": "uint256"
        }
      ],
      "name": "FreeMintClaimed",
      "type": "event"
    },
    {
      "anonymous": false,
      "inputs": [
        {
          "indexed": true,
          "internalType": "uint256",
          "name": "swarmId",
          "type": "uint256"
        },
        {
          "indexed": true,
          "internalType": "address",
          "name": "referrer",
          "type": "address"
        },
        {
          "indexed": false,
          "internalType": "uint256",
          "name": "amount",
          "type": "uint256"
        }
      ],
      "name": "ReferralReward",
      "type": "event"
    },
    {
      "anonymous": false,
      "inputs": [
        {
          "indexed": true,
          "internalType": "bytes32",
          "name": "role",
          "type": "bytes32"
        },
        {
          "indexed": true,
          "internalType": "bytes32",
          "name": "previousAdminRole",
          "type": "bytes32"
        },
        {
          "indexed": true,
          "internalType": "bytes32",
          "name": "newAdminRole",
          "type": "bytes32"
        }
      ],
      "name": "RoleAdminChanged",
      "type": "event"
    },
    {
      "anonymous": false,
      "inputs": [
        {
          "indexed": true,
          "internalType": "bytes32",
          "name": "role",
          "type": "bytes32"
        },
        {
          "indexed": true,
          "internalType": "address",
          "name": "account",
          "type": "address"
        },
        {
          "indexed": true,
          "internalType": "address",
          "name": "sender",
          "type": "address"
        }
      ],
      "name": "RoleGranted",
      "type": "event"
    },
    {
      "anonymous": false,
      "inputs": [
        {
          "indexed": true,
          "internalType": "bytes32",
          "name": "role",
          "type": "bytes32"
        },
        {
          "indexed": true,
          "internalType": "address",
          "name": "account",
          "type": "address"
        },
        {
          "indexed": true,
          "internalType": "address",
          "name": "sender",
          "type": "address"
        }
      ],
      "name": "RoleRevoked",
      "type": "event"
    },
    {
      "anonymous": false,
      "inputs": [
        {
          "indexed": true,
          "internalType": "uint256",
          "name": "swarmId",
          "type": "uint256"
        },
        {
          "indexed": false,
          "internalType": "address",
          "name": "account",
          "type": "address"
        }
      ],
      "name": "SwarmAccountCreated",
      "type": "event"
    },
    {
      "anonymous": false,
      "inputs": [
        {
          "indexed": true,
          "internalType": "uint256",
          "name": "swarmId",
          "type": "uint256"
        },
        {
          "indexed": true,
          "internalType": "address",
          "name": "architect",
          "type": "address"
        },
        {
          "indexed": false,
          "internalType": "address",
          "name": "account",
          "type": "address"
        }
      ],
      "name": "SwarmDeployed",
      "type": "event"
    },
    {
      "anonymous": false,
      "inputs": [
        {
          "indexed": true,
          "internalType": "address",
          "name": "from",
          "type": "address"
        },
        {
          "indexed": true,
          "internalType": "address",
          "name": "to",
          "type": "address"
        },
        {
          "indexed": true,
          "internalType": "uint256",
          "name": "tokenId",
          "type": "uint256"
        }
      ],
      "name": "Transfer",
      "type": "event"
    },
    {
      "anonymous": false,
      "inputs": [
        {
          "indexed": true,
          "internalType": "uint256",
          "name": "swarmId",
          "type": "uint256"
        },
        {
          "indexed": false,
          "internalType": "address",
          "name": "treasurer",
          "type": "address"
        }
      ],
      "name": "TreasurerAuthorized",
      "type": "event"
    },
    {
      "inputs": [],
      "name": "ARCHITECT_ROLE",
      "outputs": [
        {
          "internalType": "bytes32",
          "name": "",
          "type": "bytes32"
        }
      ],
      "stateMutability": "view",
      "type": "function"
    },
    {
      "inputs": [],
      "name": "DEFAULT_ADMIN_ROLE",
      "outputs": [
        {
          "internalType": "bytes32",
          "name": "",
          "type": "bytes32"
        }
      ],
      "stateMutability": "view",
      "type": "function"
    },
    {
      "inputs": [],
      "name": "MINT_FEE",
      "outputs": [
        {
          "internalType": "uint256",
          "name": "",
          "type": "uint256"
        }
      ],
      "stateMutability": "view",
      "type": "function"
    },
    {
      "inputs": [],
      "name": "TREASURER_ROLE",
      "outputs": [
        {
          "internalType": "bytes32",
          "name": "",
          "type": "bytes32"
        }
      ],
      "stateMutability": "view",
      "type": "function"
    },
    {
      "inputs": [],
      "name": "accountImplementation",
      "outputs": [
        {
          "internalType": "address",
          "name": "",
          "type": "address"
        }
      ],
      "stateMutability": "view",
      "type": "function"
    },
    {
      "inputs": [
        {
          "internalType": "address",
          "name": "to",
          "type": "address"
        },
        {
          "internalType": "uint256",
          "name": "tokenId",
          "type": "uint256"
        }
      ],
      "name": "approve",
      "outputs": [],
      "stateMutability": "nonpayable",
      "type": "function"
    },
    {
      "inputs": [
        {
          "internalType": "uint256",
          "name": "swarmId",
          "type": "uint256"
        },
        {
          "internalType": "address",
          "name": "treasurer",
          "type": "address"
        }
      ],
      "name": "authorizeTreasurer",
      "outputs": [],
      "stateMutability": "nonpayable",
      "type": "function"
    },
    {
      "inputs": [
        {
          "internalType": "address",
          "name": "owner",
          "type": "address"
        }
      ],
      "name": "balanceOf",
      "outputs": [
        {
          "internalType": "uint256",
          "name": "",
          "type": "uint256"
        }
      ],
      "stateMutability": "view",
      "type": "function"
    },
    {
      "inputs": [
        {
          "internalType": "string",
          "name": "name",
          "type": "string"
        }
      ],
      "name": "claimFreeSwarm",
      "outputs": [
        {
          "internalType": "uint256",
          "name": "swarmId",
          "type": "uint256"
        }
      ],
      "stateMutability": "nonpayable",
      "type": "function"
    },
    {
      "inputs": [
        {
          "internalType": "string",
          "name": "name",
          "type": "string"
        }
      ],
      "name": "deploySwarm",
      "outputs": [
        {
          "internalType": "uint256",
          "name": "swarmId",
          "type": "uint256"
        }
      ],
      "stateMutability": "payable",
      "type": "function"
    },
    {
      "inputs": [
        {
          "internalType": "string",
          "name": "name",
          "type": "string"
        },
        {
          "internalType": "address",
          "name": "referrer",
          "type": "address"
        }
      ],
      "name": "deploySwarmWithReferral",
      "outputs": [
        {
          "internalType": "uint256",
          "name": "swarmId",
          "type": "uint256"
        }
      ],
      "stateMutability": "payable",
      "type": "function"
    },
    {
      "inputs": [
        {
          "internalType": "address",
          "name": "",
          "type": "address"
        }
      ],
      "name": "freeMintClaimed",
      "outputs": [
        {
          "internalType": "bool",
          "name": "",
          "type": "bool"
        }
      ],
      "stateMutability": "view",
      "type": "function"
    },
    {
      "inputs": [
        {
          "internalType": "uint256",
          "name": "tokenId",
          "type": "uint256"
        }
      ],
      "name": "getApproved",
      "outputs": [
        {
          "internalType": "address",
          "name": "",
          "type": "address"
        }
      ],
      "stateMutability": "view",
      "type": "function"
    },
    {
      "inputs": [
        {
          "internalType": "bytes32",
          "name": "role",
          "type": "bytes32"
        }
      ],
      "name": "getRoleAdmin",
      "outputs": [
        {
          "internalType": "bytes32",
          "name": "",
          "type": "bytes32"
        }
      ],
      "stateMutability": "view",
      "type": "function"
    },
    {
      "inputs": [
        {
          "internalType": "uint256",
          "name": "swarmId",
          "type": "uint256"
        }
      ],
      "name": "getSwarmAccount",
      "outputs": [
        {
          "internalType": "address",
          "name": "",
          "type": "address"
        }
      ],
      "stateMutability": "view",
      "type": "function"
    },
    {
      "inputs": [
        {
          "internalType": "uint256",
          "name": "swarmId",
          "type": "uint256"
        }
      ],
      "name": "getSwarmConfig",
      "outputs": [
        {
          "components": [
            {
              "internalType": "string",
              "name": "name",
              "type": "string"
            },
            {
              "internalType": "uint8",
              "name": "scoutLevel",
              "type": "uint8"
            },
            {
              "internalType": "uint8",
              "name": "builderLevel",
              "type": "uint8"
            },
            {
              "internalType": "uint8",
              "name": "closerLevel",
              "type": "uint8"
            },
            {
              "internalType": "uint8",
              "name": "treasurerLevel",
              "type": "uint8"
            },
            {
              "internalType": "uint256",
              "name": "energyBalance",
              "type": "uint256"
            },
            {
              "internalType": "uint256",
              "name": "computeBalance",
              "type": "uint256"
            },
            {
              "internalType": "uint256",
              "name": "dataBalance",
              "type": "uint256"
            }
          ],
          "internalType": "struct SwarmNFT.SwarmConfig",
          "name": "",
          "type": "tuple"
        }
      ],
      "stateMutability": "view",
      "type": "function"
    },
    {
      "inputs": [
        {
          "internalType": "bytes32",
          "name": "role",
          "type": "bytes32"
        },
        {
          "internalType": "address",
          "name": "account",
          "type": "address"
        }
      ],
      "name": "grantRole",
      "outputs": [],
      "stateMutability": "nonpayable",
      "type": "function"
    },
    {
      "inputs": [
        {
          "internalType": "bytes32",
          "name": "role",
          "type": "bytes32"
        },
        {
          "internalType": "address",
          "name": "account",
          "type": "address"
        }
      ],
      "name": "hasRole",
      "outputs": [
        {
          "internalType": "bool",
          "name": "",
          "type": "bool"
        }
      ],
      "stateMutability": "view",
      "type": "function"
    },
    {
      "inputs": [
        {
          "internalType": "address",
          "name": "owner",
          "type": "address"
        },
        {
          "internalType": "address",
          "name": "operator",
          "type": "address"
        }
      ],
      "name": "isApprovedForAll",
      "outputs": [
        {
          "internalType": "bool",
          "name": "",
          "type": "bool"
        }
      ],
      "stateMutability": "view",
      "type": "function"
    },
    {
      "inputs": [],
      "name": "name",
      "outputs": [
        {
          "internalType": "string",
          "name": "",
          "type": "string"
        }
      ],
      "stateMutability": "view",
      "type": "function"
    },
    {
      "inputs": [
        {
          "internalType": "uint256",
          "name": "tokenId",
          "type": "uint256"
        }
      ],
      "name": "ownerOf",
      "outputs": [
        {
          "internalType": "address",
          "name": "",
          "type": "address"
        }
      ],
      "stateMutability": "view",
      "type": "function"
    },
    {
      "inputs": [
        {
          "internalType": "bytes32",
          "name": "role",
          "type": "bytes32"
        },
        {
          "internalType": "address",
          "name": "callerConfirmation",
          "type": "address"
        }
      ],
      "name": "renounceRole",
      "outputs": [],
      "stateMutability": "nonpayable",
      "type": "function"
    },
    {
      "inputs": [
        {
          "internalType": "bytes32",
          "name": "role",
          "type": "bytes32"
        },
        {
          "internalType": "address",
          "name": "account",
          "type": "address"
        }
      ],
      "name": "revokeRole",
      "outputs": [],
      "stateMutability": "nonpayable",
      "type": "function"
    },
    {
      "inputs": [
        {
          "internalType": "uint256",
          "name": "swarmId",
          "type": "uint256"
        },
        {
          "internalType": "address",
          "name": "treasurer",
          "type": "address"
        }
      ],
      "name": "revokeTreasurer",
      "outputs": [],
      "stateMutability": "nonpayable",
      "type": "function"
    },
    {
      "inputs": [
        {
          "internalType": "address",
          "name": "from",
          "type": "address"
        },
        {
          "internalType": "address",
          "name": "to",
          "type": "address"
        },
        {
          "internalType": "uint256",
          "name": "tokenId",
          "type": "uint256"
        }
      ],
      "name": "safeTransferFrom",
      "outputs": [],
      "stateMutability": "nonpayable",
      "type": "function"
    },
    {
      "inputs": [
        {
          "internalType": "address",
          "name": "from",
          "type": "address"
        },
        {
          "internalType": "address",
          "name": "to",
          "type": "address"
        },
        {
          "internalType": "uint256",
          "name": "tokenId",
          "type": "uint256"
        },
        {
          "internalType": "bytes",
          "name": "data",
          "type": "bytes"
        }
      ],
      "name": "safeTransferFrom",
      "outputs": [],
      "stateMutability": "nonpayable",
      "type": "function"
    },
    {
      "inputs": [
        {
          "internalType": "address",
          "name": "operator",
          "type": "address"
        },
        {
          "internalType": "bool",
          "name": "approved",
          "type": "bool"
        }
      ],
      "name": "setApprovalForAll",
      "outputs": [],
      "stateMutability": "nonpayable",
      "type": "function"
    },
    {
      "inputs": [
        {
          "internalType": "bytes4",
          "name": "interfaceId",
          "type": "bytes4"
        }
      ],
      "name": "supportsInterface",
      "outputs": [
        {
          "internalType": "bool",
          "name": "",
          "type": "bool"
        }
      ],
      "stateMutability": "view",
      "type": "function"
    },
    {
      "inputs": [
        {
          "internalType": "uint256",
          "name": "",
          "type": "uint256"
        }
      ],
      "name": "swarmAccount",
      "outputs": [
        {
          "internalType": "address",
          "name": "",
          "type": "address"
        }
      ],
      "stateMutability": "view",
      "type": "function"
    },
    {
      "inputs": [
        {
          "internalType": "uint256",
          "name": "",
          "type": "uint256"
        }
      ],
      "name": "swarmArchitect",
      "outputs": [
        {
          "internalType": "address",
          "name": "",
          "type": "address"
        }
      ],
      "stateMutability": "view",
      "type": "function"
    },
    {
      "inputs": [
        {
          "internalType": "uint256",
          "name": "",
          "type": "uint256"
        }
      ],
      "name": "swarmConfigs",
      "outputs": [
        {
          "internalType": "string",
          "name": "name",
          "type": "string"
        },
        {
          "internalType": "uint8",
          "name": "scoutLevel",
          "type": "uint8"
        },
        {
          "internalType": "uint8",
          "name": "builderLevel",
          "type": "uint8"
        },
        {
          "internalType": "uint8",
          "name": "closerLevel",
          "type": "uint8"
        },
        {
          "internalType": "uint8",
          "name": "treasurerLevel",
          "type": "uint8"
        },
        {
          "internalType": "uint256",
          "name": "energyBalance",
          "type": "uint256"
        },
        {
          "internalType": "uint256",
          "name": "computeBalance",
          "type": "uint256"
        },
        {
          "internalType": "uint256",
          "name": "dataBalance",
          "type": "uint256"
        }
      ],
      "stateMutability": "view",
      "type": "function"
    },
    {
      "inputs": [],
      "name": "symbol",
      "outputs": [
        {
          "internalType": "string",
          "name": "",
          "type": "string"
        }
      ],
      "stateMutability": "view",
      "type": "function"
    },
    {
      "inputs": [],
      "name": "tokenBoundRegistry",
      "outputs": [
        {
          "internalType": "address",
          "name": "",
          "type": "address"
        }
      ],
      "stateMutability": "view",
      "type": "function"
    },
    {
      "inputs": [
        {
          "internalType": "uint256",
          "name": "tokenId",
          "type": "uint256"
        }
      ],
      "name": "tokenURI",
      "outputs": [
        {
          "internalType": "string",
          "name": "",
          "type": "string"
        }
      ],
      "stateMutability": "view",
      "type": "function"
    },
    {
      "inputs": [],
      "name": "totalRevenue",
      "outputs": [
        {
          "internalType": "uint256",
          "name": "",
          "type": "uint256"
        }
      ],
      "stateMutability": "view",
      "type": "function"
    },
    {
      "inputs": [],
      "name": "totalSwarms",
      "outputs": [
        {
          "internalType": "uint256",
          "name": "",
          "type": "uint256"
        }
      ],
      "stateMutability": "view",
      "type": "function"
    },
    {
      "inputs": [
        {
          "internalType": "address",
          "name": "from",
          "type": "address"
        },
        {
          "internalType": "address",
          "name": "to",
          "type": "address"
        },
        {
          "internalType": "uint256",
          "name": "tokenId",
          "type": "uint256"
        }
      ],
      "name": "transferFrom",
      "outputs": [],
      "stateMutability": "nonpayable",
      "type": "function"
    },
    {
      "inputs": [],
      "name": "treasury",
      "outputs": [
        {
          "internalType": "address",
          "name": "",
          "type": "address"
        }
      ],
      "stateMutability": "view",
      "type": "function"
    }
  ],
  "bytecode": "0x60c060405234801561000f575f80fd5b506040516129ca3803806129ca83398101604081905261002e916102c1565b6040518060400160405280601081526020016f4165746865722d57617220537761726d60801b81525060405180604001604052806005815260200164535741524d60d81b815250815f90816100839190610399565b5060016100908282610399565b50505060016100a96100a66101d560201b60201c565b90565b556001600160a01b0383166100f85760405162461bcd60e51b815260206004820152601060248201526f496e76616c696420726567697374727960801b60448201526064015b60405180910390fd5b6001600160a01b03821661014e5760405162461bcd60e51b815260206004820152601660248201527f496e76616c696420696d706c656d656e746174696f6e0000000000000000000060448201526064016100ef565b6001600160a01b0381166101975760405162461bcd60e51b815260206004820152601060248201526f496e76616c696420747265617375727960801b60448201526064016100ef565b6001600160a01b0383811660805282811660a052600980546001600160a01b0319169183169190911790556101cc5f336101f9565b50505050610458565b7f9b779b17422d0df92223018b32b4d1fa46e071723d6817e2486d003becc55f0090565b5f8281526006602090815260408083206001600160a01b038516845290915281205460ff1661029d575f8381526006602090815260408083206001600160a01b03861684529091529020805460ff191660011790556102553390565b6001600160a01b0316826001600160a01b0316847f2f8788117e7eff1d82e926ec794901d17c78024a50270940304540a733656f0d60405160405180910390a45060016102a0565b505f5b92915050565b80516001600160a01b03811681146102bc575f80fd5b919050565b5f805f606084860312156102d3575f80fd5b6102dc846102a6565b92506102ea602085016102a6565b91506102f8604085016102a6565b90509250925092565b634e487b7160e01b5f52604160045260245ffd5b600181811c9082168061032957607f821691505b60208210810361034757634e487b7160e01b5f52602260045260245ffd5b50919050565b601f82111561039457805f5260205f20601f840160051c810160208510156103725750805b601f840160051c820191505b81811015610391575f815560010161037e565b50505b505050565b81516001600160401b038111156103b2576103b2610301565b6103c6816103c08454610315565b8461034d565b602080601f8311600181146103f9575f84156103e25750858301515b5f19600386901b1c1916600185901b178555610450565b5f85815260208120601f198616915b8281101561042757888601518255948401946001909101908401610408565b508582101561044457878501515f19600388901b60f8161c191681555b505060018460011b0185555b505050505050565b60805160a0516125436104875f395f818161030c015261136801525f818161075d015261133b01526125435ff3fe60806040526004361061021d575f3560e01c806395d89b411161011e578063c87b56dd116100a8578063e0ec7c361161006d578063e0ec7c36146106ad578063e68b38e7146106db578063e985e9c5146106fa578063f0a3a97c14610719578063fdf250df1461074c575f80fd5b8063c87b56dd14610602578063c9653cd214610621578063d547741f14610655578063d7bf81a314610674578063db26c9071461068e575f80fd5b8063a22cb465116100ee578063a22cb46514610567578063ab11cf9914610586578063b88d4fde1461059a578063bf2d9e0b146105b9578063c04593e0146105ce575f80fd5b806395d89b411461051a5780639a0967771461052e5780639d15fe3714610541578063a217fddf14610554575f80fd5b806336568abe116101aa5780636a9198961161016f5780636a9198961461044257806370a082311461047657806380c332f41461049557806391d14854146104c857806395d11513146104e7575f80fd5b806336568abe1461039a5780633c13eb45146103b957806342842e0e146103e557806361d027b3146104045780636352211e14610423575f80fd5b8063113c4e46116101f0578063113c4e46146102ce57806311464fbe146102fb57806323b872dd1461032e578063248a9ca31461034d5780632f2ff15d1461037b575f80fd5b806301ffc9a71461022157806306fdde0314610255578063081812fc14610276578063095ea7b3146102ad575b5f80fd5b34801561022c575f80fd5b5061024061023b366004611e7f565b61077f565b60405190151581526020015b60405180910390f35b348015610260575f80fd5b5061026961078f565b60405161024c9190611ec8565b348015610281575f80fd5b50610295610290366004611eda565b61081e565b6040516001600160a01b03909116815260200161024c565b3480156102b8575f80fd5b506102cc6102c7366004611f05565b610845565b005b3480156102d9575f80fd5b506102ed6102e8366004611fd4565b610854565b60405190815260200161024c565b348015610306575f80fd5b506102957f000000000000000000000000000000000000000000000000000000000000000081565b348015610339575f80fd5b506102cc610348366004612006565b610919565b348015610358575f80fd5b506102ed610367366004611eda565b5f9081526006602052604090206001015490565b348015610386575f80fd5b506102cc610395366004612044565b6109a2565b3480156103a5575f80fd5b506102cc6103b4366004612044565b6109c6565b3480156103c4575f80fd5b506103d86103d3366004611eda565b6109fe565b60405161024c9190612072565b3480156103f0575f80fd5b506102cc6103ff366004612006565b610b41565b34801561040f575f80fd5b50600954610295906001600160a01b031681565b34801561042e575f80fd5b5061029561043d366004611eda565b610b5b565b34801561044d575f80fd5b5061029561045c366004611eda565b5f908152600860205260409020546001600160a01b031690565b348015610481575f80fd5b506102ed6104903660046120f8565b610b65565b3480156104a0575f80fd5b506104b46104af366004611eda565b610baa565b60405161024c989796959493929190612113565b3480156104d3575f80fd5b506102406104e2366004612044565b610c7b565b3480156104f2575f80fd5b506102ed7fd81d72b65535f1777b4b20777e5306dade95bd1fde525ef999f6bd610befc1d481565b348015610525575f80fd5b50610269610ca5565b6102ed61053c366004611fd4565b610cb4565b6102ed61054f366004612164565b610d0e565b34801561055f575f80fd5b506102ed5f81565b348015610572575f80fd5b506102cc6105813660046121a8565b610f0e565b348015610591575f80fd5b506007546102ed565b3480156105a5575f80fd5b506102cc6105b43660046121d8565b610f19565b3480156105c4575f80fd5b506102ed600a5481565b3480156105d9575f80fd5b506102956105e8366004611eda565b60086020525f90815260409020546001600160a01b031681565b34801561060d575f80fd5b5061026961061c366004611eda565b610f31565b34801561062c575f80fd5b5061029561063b366004611eda565b600b6020525f90815260409020546001600160a01b031681565b348015610660575f80fd5b506102cc61066f366004612044565b610fa2565b34801561067f575f80fd5b506102ed662386f26fc1000081565b348015610699575f80fd5b506102cc6106a8366004612044565b610fc6565b3480156106b8575f80fd5b506102406106c73660046120f8565b600c6020525f908152604090205460ff1681565b3480156106e6575f80fd5b506102cc6106f5366004612044565b61113b565b348015610705575f80fd5b50610240610714366004612253565b61122c565b348015610724575f80fd5b506102ed7f3496e2e73c4d42b75d702e60d9e48102720b8691234415963a5a857b86425d0781565b348015610757575f80fd5b506102957f000000000000000000000000000000000000000000000000000000000000000081565b5f61078982611259565b92915050565b60605f805461079d9061227f565b80601f01602080910402602001604051908101604052809291908181526020018280546107c99061227f565b80156108145780601f106107eb57610100808354040283529160200191610814565b820191905f5260205f20905b8154815290600101906020018083116107f757829003601f168201915b5050505050905090565b5f6108288261127d565b505f828152600460205260409020546001600160a01b0316610789565b6108508282336112b5565b5050565b335f908152600c602052604081205460ff16156108b85760405162461bcd60e51b815260206004820152601960248201527f416c726561647920636c61696d65642066726565206d696e740000000000000060448201526064015b60405180910390fd5b335f818152600c60205260409020805460ff191660011790556108dc9083906112c2565b60405181815290915033907fe91fb6f6e63e422891240e87793b639784a8dd4bc6567605af8443909819ef129060200160405180910390a2919050565b6001600160a01b03821661094257604051633250574960e11b81525f60048201526024016108af565b5f61094e838333611636565b9050836001600160a01b0316816001600160a01b03161461099c576040516364283d7b60e01b81526001600160a01b03808616600483015260248201849052821660448201526064016108af565b50505050565b5f828152600660205260409020600101546109bc81611728565b61099c8383611735565b6001600160a01b03811633146109ef5760405163334bd91960e11b815260040160405180910390fd5b6109f982826117c6565b505050565b604080516101008101825260608082525f6020830181905292820183905281018290526080810182905260a0810182905260c0810182905260e08101919091525f828152600d60205260409081902081516101008101909252805482908290610a669061227f565b80601f0160208091040260200160405190810160405280929190818152602001828054610a929061227f565b8015610add5780601f10610ab457610100808354040283529160200191610add565b820191905f5260205f20905b815481529060010190602001808311610ac057829003601f168201915b5050509183525050600182015460ff8082166020840152610100820481166040840152620100008204811660608401526301000000909104166080820152600282015460a0820152600382015460c082015260049091015460e09091015292915050565b6109f983838360405180602001604052805f815250610f19565b5f6107898261127d565b5f6001600160a01b038216610b8f576040516322718ad960e21b81525f60048201526024016108af565b506001600160a01b03165f9081526003602052604090205490565b600d6020525f9081526040902080548190610bc49061227f565b80601f0160208091040260200160405190810160405280929190818152602001828054610bf09061227f565b8015610c3b5780601f10610c1257610100808354040283529160200191610c3b565b820191905f5260205f20905b815481529060010190602001808311610c1e57829003601f168201915b505050600184015460028501546003860154600490960154949560ff80841696610100850482169650620100008504821695506301000000909404169288565b5f9182526006602090815260408084206001600160a01b0393909316845291905290205460ff1690565b60606001805461079d9061227f565b5f662386f26fc10000341015610d045760405162461bcd60e51b8152602060048201526015602482015274496e73756666696369656e74206d696e742066656560581b60448201526064016108af565b61078982336112c2565b5f662386f26fc10000341015610d5e5760405162461bcd60e51b8152602060048201526015602482015274496e73756666696369656e74206d696e742066656560581b60448201526064016108af565b336001600160a01b03831603610dae5760405162461bcd60e51b815260206004820152601560248201527421b0b73737ba103932b332b9103cb7bab939b2b63360591b60448201526064016108af565b6001600160a01b038216610df75760405162461bcd60e51b815260206004820152601060248201526f24b73b30b634b2103932b332b93932b960811b60448201526064016108af565b610e0183336112c2565b90505f610e166002662386f26fc100006122cb565b90505f836001600160a01b0316826040515f6040518083038185875af1925050503d805f8114610e61576040519150601f19603f3d011682016040523d82523d5f602084013e610e66565b606091505b5050905080610eb05760405162461bcd60e51b8152602060048201526016602482015275149959995c9c985b081c995dd85c990819985a5b195960521b60448201526064016108af565b81600a5f828254610ec191906122ea565b90915550506040518281526001600160a01b0385169084907f973e6d36a5e5dc44e17efca2a324a960a125c17cb2c868f983192f9971b980369060200160405180910390a3505092915050565b610850338383611831565b610f24848484610919565b61099c33858585856118f8565b6060610f3c8261127d565b505f610f5260408051602081019091525f815290565b90505f815111610f705760405180602001604052805f815250610f9b565b80610f7a84611a1e565b604051602001610f8b929190612314565b6040516020818303038152906040525b9392505050565b5f82815260066020526040902060010154610fbc81611728565b61099c83836117c6565b5f828152600b60205260409020546001600160a01b0316331461101c5760405162461bcd60e51b815260206004820152600e60248201526d13db9b1e48105c98da1a5d1958dd60921b60448201526064016108af565b6001600160a01b0381166110615760405162461bcd60e51b815260206004820152600c60248201526b5a65726f206164647265737360a01b60448201526064016108af565b61108b7f3496e2e73c4d42b75d702e60d9e48102720b8691234415963a5a857b86425d0782611735565b505f8281526008602052604090819020549051631e1bff3f60e01b81526001600160a01b0383811660048301526001602483015290911690631e1bff3f906044015f604051808303815f87803b1580156110e3575f80fd5b505af11580156110f5573d5f803e3d5ffd5b50506040516001600160a01b03841681528492507f39cd1c2c35381e05dad97cac7d6a70fd2452c44df043b29a3bd1a59768c8b254915060200160405180910390a25050565b5f828152600b60205260409020546001600160a01b031633146111915760405162461bcd60e51b815260206004820152600e60248201526d13db9b1e48105c98da1a5d1958dd60921b60448201526064016108af565b6111bb7f3496e2e73c4d42b75d702e60d9e48102720b8691234415963a5a857b86425d07826117c6565b505f82815260086020526040808220549051631e1bff3f60e01b81526001600160a01b0384811660048301526024820193909352911690631e1bff3f906044015f604051808303815f87803b158015611212575f80fd5b505af1158015611224573d5f803e3d5ffd5b505050505050565b6001600160a01b039182165f90815260056020908152604080832093909416825291909152205460ff1690565b5f6001600160e01b03198216637965db0b60e01b1480610789575061078982611aae565b5f818152600260205260408120546001600160a01b03168061078957604051637e27328960e01b8152600481018490526024016108af565b6109f98383836001611afd565b5f60075f81546112d190612328565b918290555090506112e23382611c01565b604051336024820152604481018290525f9060640160408051601f198184030181529181526020820180516001600160e01b031663cd6dc68760e01b1790525163da7323b360e01b81529091505f906001600160a01b037f0000000000000000000000000000000000000000000000000000000000000000169063da7323b39061139a907f00000000000000000000000000000000000000000000000000000000000000009046903090899088908a90600401612340565b6020604051808303815f875af11580156113b6573d5f803e3d5ffd5b505050506040513d601f19601f820116820180604052508101906113da9190612388565b5f84815260086020908152604080832080546001600160a01b0386166001600160a01b031991821617909155600b8352818420805490911633179055805161010081018252898152600181840181905281830181905260608201819052608082015268056bc75e2d6310000060a0820152678ac7230489e8000060c082015260e08101849052878452600d90925290912081519293509091819061147e90826123e7565b50602082015160018201805460408501516060860151608087015160ff90811663010000000263ff0000001992821662010000029290921663ffff0000199382166101000261ffff19909516919096161792909217169290921791909117905560a0820151600282015560c0820151600382015560e0909101516004909101556115287fd81d72b65535f1777b4b20777e5306dade95bd1fde525ef999f6bd610befc1d433611735565b506009546040515f916001600160a01b031690662386f26fc10000908381818185875af1925050503d805f811461157a576040519150601f19603f3d011682016040523d82523d5f602084013e61157f565b606091505b50509050806115d05760405162461bcd60e51b815260206004820152601860248201527f5472656173757279207472616e73666572206661696c6564000000000000000060448201526064016108af565b662386f26fc10000600a5f8282546115e891906124a3565b90915550506040516001600160a01b0383168152339085907f2c30f1e45458aaa5ffe400157626f57f46fe469a21acc74b711656c4eb58474d9060200160405180910390a350505092915050565b5f828152600260205260408120546001600160a01b039081169083161561166257611662818486611c1a565b6001600160a01b0381161561169c5761167d5f855f80611afd565b6001600160a01b0381165f90815260036020526040902080545f190190555b6001600160a01b038516156116ca576001600160a01b0385165f908152600360205260409020805460010190555b5f8481526002602052604080822080546001600160a01b0319166001600160a01b0389811691821790925591518793918516917fddf252ad1be2c89b69c2b068fc378daa952ba7f163c4a11628f55a4df523b3ef91a4949350505050565b6117328133611c7e565b50565b5f6117408383610c7b565b6117bf575f8381526006602090815260408083206001600160a01b03861684529091529020805460ff191660011790556117773390565b6001600160a01b0316826001600160a01b0316847f2f8788117e7eff1d82e926ec794901d17c78024a50270940304540a733656f0d60405160405180910390a4506001610789565b505f610789565b5f6117d18383610c7b565b156117bf575f8381526006602090815260408083206001600160a01b0386168085529252808320805460ff1916905551339286917ff6391f5c32d9c69d2a47ea670b442974b53935d1edc7fd64eb21e047a839171b9190a4506001610789565b6001600160a01b03831661185a5760405163a9fbf51f60e01b81525f60048201526024016108af565b6001600160a01b03821661188c57604051630b61174360e31b81526001600160a01b03831660048201526024016108af565b6001600160a01b038381165f81815260056020908152604080832094871680845294825291829020805460ff191686151590811790915591519182527f17307eab39ab6107e8899845ad3d59bd9653f200f220920489ca2b5937696c31910160405180910390a3505050565b6001600160a01b0383163b15611a1757604051630a85bd0160e11b81526001600160a01b0384169063150b7a029061193a9088908890879087906004016124b6565b6020604051808303815f875af1925050508015611974575060408051601f3d908101601f19168201909252611971918101906124f2565b60015b6119db573d8080156119a1576040519150601f19603f3d011682016040523d82523d5f602084013e6119a6565b606091505b5080515f036119d357604051633250574960e11b81526001600160a01b03851660048201526024016108af565b805160208201fd5b6001600160e01b03198116630a85bd0160e11b1461122457604051633250574960e11b81526001600160a01b03851660048201526024016108af565b5050505050565b60605f611a2a83611cb7565b60010190505f8167ffffffffffffffff811115611a4957611a49611f2f565b6040519080825280601f01601f191660200182016040528015611a73576020820181803683370190505b5090508181016020015b5f19016f181899199a1a9b1b9c1cb0b131b232b360811b600a86061a8153600a8504945084611a7d57509392505050565b5f6001600160e01b031982166380ac58cd60e01b1480611ade57506001600160e01b03198216635b5e139f60e01b145b8061078957506301ffc9a760e01b6001600160e01b0319831614610789565b8080611b1157506001600160a01b03821615155b15611bd2575f611b208461127d565b90506001600160a01b03831615801590611b4c5750826001600160a01b0316816001600160a01b031614155b8015611b5f5750611b5d818461122c565b155b15611b885760405163a9fbf51f60e01b81526001600160a01b03841660048201526024016108af565b8115611bd05783856001600160a01b0316826001600160a01b03167f8c5be1e5ebec7d5bd14f71427d1e84f3dd0314c0f7b2291e5b200ac8c7c3b92560405160405180910390a45b505b50505f90815260046020526040902080546001600160a01b0319166001600160a01b0392909216919091179055565b610850828260405180602001604052805f815250611d8e565b611c25838383611da5565b6109f9576001600160a01b038316611c5357604051637e27328960e01b8152600481018290526024016108af565b60405163177e802f60e01b81526001600160a01b0383166004820152602481018290526044016108af565b611c888282610c7b565b6108505760405163e2517d3f60e01b81526001600160a01b0382166004820152602481018390526044016108af565b5f8072184f03e93ff9f4daa797ed6e38ed64bf6a1f0160401b8310611cf55772184f03e93ff9f4daa797ed6e38ed64bf6a1f0160401b830492506040015b6d04ee2d6d415b85acef81000000008310611d21576d04ee2d6d415b85acef8100000000830492506020015b662386f26fc100008310611d3f57662386f26fc10000830492506010015b6305f5e1008310611d57576305f5e100830492506008015b6127108310611d6b57612710830492506004015b60648310611d7d576064830492506002015b600a83106107895760010192915050565b611d988383611e09565b6109f9335f8585856118f8565b5f6001600160a01b03831615801590611e015750826001600160a01b0316846001600160a01b03161480611dde5750611dde848461122c565b80611e0157505f828152600460205260409020546001600160a01b038481169116145b949350505050565b6001600160a01b038216611e3257604051633250574960e11b81525f60048201526024016108af565b5f611e3e83835f611636565b90506001600160a01b038116156109f9576040516339e3563760e11b81525f60048201526024016108af565b6001600160e01b031981168114611732575f80fd5b5f60208284031215611e8f575f80fd5b8135610f9b81611e6a565b5f81518084528060208401602086015e5f602082860101526020601f19601f83011685010191505092915050565b602081525f610f9b6020830184611e9a565b5f60208284031215611eea575f80fd5b5035919050565b6001600160a01b0381168114611732575f80fd5b5f8060408385031215611f16575f80fd5b8235611f2181611ef1565b946020939093013593505050565b634e487b7160e01b5f52604160045260245ffd5b5f67ffffffffffffffff80841115611f5d57611f5d611f2f565b604051601f8501601f19908116603f01168101908282118183101715611f8557611f85611f2f565b81604052809350858152868686011115611f9d575f80fd5b858560208301375f602087830101525050509392505050565b5f82601f830112611fc5575f80fd5b610f9b83833560208501611f43565b5f60208284031215611fe4575f80fd5b813567ffffffffffffffff811115611ffa575f80fd5b611e0184828501611fb6565b5f805f60608486031215612018575f80fd5b833561202381611ef1565b9250602084013561203381611ef1565b929592945050506040919091013590565b5f8060408385031215612055575f80fd5b82359150602083013561206781611ef1565b809150509250929050565b602081525f8251610100806020850152612090610120850183611e9a565b915060ff602086015116604085015260ff604086015116606085015260608501516120c0608086018260ff169052565b50608085015160ff811660a08601525060a085015160c085015260c085015160e085015260e085015181850152508091505092915050565b5f60208284031215612108575f80fd5b8135610f9b81611ef1565b5f6101008083526121268184018c611e9a565b60ff9a8b166020850152988a1660408401525050948716606086015292909516608084015260a083015260c082019390935260e00191909152919050565b5f8060408385031215612175575f80fd5b823567ffffffffffffffff81111561218b575f80fd5b61219785828601611fb6565b925050602083013561206781611ef1565b5f80604083850312156121b9575f80fd5b82356121c481611ef1565b915060208301358015158114612067575f80fd5b5f805f80608085870312156121eb575f80fd5b84356121f681611ef1565b9350602085013561220681611ef1565b925060408501359150606085013567ffffffffffffffff811115612228575f80fd5b8501601f81018713612238575f80fd5b61224787823560208401611f43565b91505092959194509250565b5f8060408385031215612264575f80fd5b823561226f81611ef1565b9150602083013561206781611ef1565b600181811c9082168061229357607f821691505b6020821081036122b157634e487b7160e01b5f52602260045260245ffd5b50919050565b634e487b7160e01b5f52601160045260245ffd5b5f826122e557634e487b7160e01b5f52601260045260245ffd5b500490565b81810381811115610789576107896122b7565b5f81518060208401855e5f93019283525090919050565b5f611e0161232283866122fd565b846122fd565b5f60018201612339576123396122b7565b5060010190565b5f60018060a01b03808916835287602084015280871660408401525084606083015283608083015260c060a083015261237c60c0830184611e9a565b98975050505050505050565b5f60208284031215612398575f80fd5b8151610f9b81611ef1565b601f8211156109f957805f5260205f20601f840160051c810160208510156123c85750805b601f840160051c820191505b81811015611a17575f81556001016123d4565b815167ffffffffffffffff81111561240157612401611f2f565b6124158161240f845461227f565b846123a3565b602080601f831160018114612448575f84156124315750858301515b5f19600386901b1c1916600185901b178555611224565b5f85815260208120601f198616915b8281101561247657888601518255948401946001909101908401612457565b508582101561249357878501515f19600388901b60f8161c191681555b5050505050600190811b01905550565b80820180821115610789576107896122b7565b6001600160a01b03858116825284166020820152604081018390526080606082018190525f906124e890830184611e9a565b9695505050505050565b5f60208284031215612502575f80fd5b8151610f9b81611e6a56fea26469706673582212203a9bfe34be1a7bb63e981603339adee3cce09e9c7a1f75bbd056e2308d46ea2e64736f6c63430008190033",
  "linkReferences": {},
  "deployedLinkReferences": {}
}