{
  "_format": "hh-sol-artifact-1",
  "contractName": "SwarmAccount",
  "sourceName": "contracts/swarm/SwarmAccount.sol",
  "abi": [
    {
      "inputs": [],
      "name": "ECDSAInvalidSignature",
      "type": "error"
    },
    {
      "inputs": [
        {
          "internalType": "uint256",
          "name": "length",
          "type": "uint256"
        }
      ],
      "name": "ECDSAInvalidSignatureLength",
      "type": "error"
    },
    {
      "inputs": [
        {
          "internalType": "bytes32",
          "name": "s",
          "type": "bytes32"
        }
      ],
      "name": "ECDSAInvalidSignatureS",
      "type": "error"
    },
    {
      "anonymous": false,
      "inputs": [
        {
          "indexed": true,
          "internalType": "address",
          "name": "target",
          "type": "address"
        },
        {
          "indexed": false,
          "internalType": "uint256",
          "name": "value",
          "type": "uint256"
        },
        {
          "indexed": false,
          "internalType": "bytes",
          "name": "data",
          "type": "bytes"
        },
        {
          "indexed": false,
          "internalType": "address",
          "name": "executor",
          "type": "address"
        }
      ],
      "name": "Executed",
      "type": "event"
    },
    {
      "anonymous": false,
      "inputs": [
        {
          "indexed": true,
          "internalType": "address",
          "name": "executor",
          "type": "address"
        },
        {
          "indexed": false,
          "internalType": "bool",
          "name": "authorized",
          "type": "bool"
        }
      ],
      "name": "ExecutorSet",
      "type": "event"
    },
    {
      "anonymous": false,
      "inputs": [
        {
          "indexed": true,
          "internalType": "address",
          "name": "from",
          "type": "address"
        },
        {
          "indexed": false,
          "internalType": "uint256",
          "name": "amount",
          "type": "uint256"
        }
      ],
      "name": "Received",
      "type": "event"
    },
    {
      "inputs": [],
      "name": "LARGE_TRANSFER_THRESHOLD",
      "outputs": [
        {
          "internalType": "uint256",
          "name": "",
          "type": "uint256"
        }
      ],
      "stateMutability": "view",
      "type": "function"
    },
    {
      "inputs": [],
      "name": "architect",
      "outputs": [
        {
          "internalType": "address",
          "name": "",
          "type": "address"
        }
      ],
      "stateMutability": "view",
      "type": "function"
    },
    {
      "inputs": [
        {
          "internalType": "address",
          "name": "target",
          "type": "address"
        },
        {
          "internalType": "uint256",
          "name": "value",
          "type": "uint256"
        },
        {
          "internalType": "bytes",
          "name": "data",
          "type": "bytes"
        }
      ],
      "name": "execute",
      "outputs": [
        {
          "internalType": "bytes",
          "name": "result",
          "type": "bytes"
        }
      ],
      "stateMutability": "nonpayable",
      "type": "function"
    },
    {
      "inputs": [
        {
          "internalType": "address",
          "name": "target",
          "type": "address"
        },
        {
          "internalType": "uint256",
          "name": "value",
          "type": "uint256"
        },
        {
          "internalType": "bytes",
          "name": "data",
          "type": "bytes"
        },
        {
          "internalType": "bytes",
          "name": "architectSignature",
          "type": "bytes"
        }
      ],
      "name": "executeWithSignature",
      "outputs": [
        {
          "internalType": "bytes",
          "name": "",
          "type": "bytes"
        }
      ],
      "stateMutability": "nonpayable",
      "type": "function"
    },
    {
      "inputs": [
        {
          "internalType": "uint256",
          "name": "",
          "type": "uint256"
        }
      ],
      "name": "executors",
      "outputs": [
        {
          "internalType": "address",
          "name": "",
          "type": "address"
        }
      ],
      "stateMutability": "view",
      "type": "function"
    },
    {
      "inputs": [
        {
          "internalType": "address",
          "name": "_architect",
          "type": "address"
        },
        {
          "internalType": "uint256",
          "name": "_swarmId",
          "type": "uint256"
        }
      ],
      "name": "initialize",
      "outputs": [],
      "stateMutability": "nonpayable",
      "type": "function"
    },
    {
      "inputs": [
        {
          "internalType": "address",
          "name": "",
          "type": "address"
        }
      ],
      "name": "isExecutor",
      "outputs": [
        {
          "internalType": "bool",
          "name": "",
          "type": "bool"
        }
      ],
      "stateMutability": "view",
      "type": "function"
    },
    {
      "inputs": [
        {
          "internalType": "address",
          "name": "",
          "type": "address"
        },
        {
          "internalType": "address",
          "name": "",
          "type": "address"
        },
        {
          "internalType": "uint256",
          "name": "",
          "type": "uint256"
        },
        {
          "internalType": "uint256",
          "name": "",
          "type": "uint256"
        },
        {
          "internalType": "bytes",
          "name": "",
          "type": "bytes"
        }
      ],
      "name": "onERC1155Received",
      "outputs": [
        {
          "internalType": "bytes4",
          "name": "",
          "type": "bytes4"
        }
      ],
      "stateMutability": "pure",
      "type": "function"
    },
    {
      "inputs": [
        {
          "internalType": "address",
          "name": "",
          "type": "address"
        },
        {
          "internalType": "address",
          "name": "",
          "type": "address"
        },
        {
          "internalType": "uint256",
          "name": "",
          "type": "uint256"
        },
        {
          "internalType": "bytes",
          "name": "",
          "type": "bytes"
        }
      ],
      "name": "onERC721Received",
      "outputs": [
        {
          "internalType": "bytes4",
          "name": "",
          "type": "bytes4"
        }
      ],
      "stateMutability": "pure",
      "type": "function"
    },
    {
      "inputs": [
        {
          "internalType": "address",
          "name": "executor",
          "type": "address"
        },
        {
          "internalType": "bool",
          "name": "authorized",
          "type": "bool"
        }
      ],
      "name": "setExecutor",
      "outputs": [],
      "stateMutability": "nonpayable",
      "type": "function"
    },
    {
      "inputs": [],
      "name": "swarmId",
      "outputs": [
        {
          "internalType": "uint256",
          "name": "",
          "type": "uint256"
        }
      ],
      "stateMutability": "view",
      "type": "function"
    },
    {
      "stateMutability": "payable",
      "type": "receive"
    }
  ],
  "bytecode": "0x6080604052348015600e575f80fd5b50610fac8061001c5f395ff3fe60806040526004361061009d575f3560e01c8063cd6dc68711610062578063cd6dc687146101cc578063d5e42e2c146101eb578063d714b61214610207578063debfda3014610226578063f23a6e6114610264578063f97a05df14610290575f80fd5b8063150b7a02146100dd5780631e1bff3f146101265780632ff708a614610147578063936a9ec21461016a578063b61d27f6146101a0575f80fd5b366100d95760405134815233907f88a5966d370b9919b20f3e2c13ff65706f196a4e32cc2c12bf57088f885258749060200160405180910390a2005b5f80fd5b3480156100e8575f80fd5b506101086100f7366004610b51565b630a85bd0160e11b95945050505050565b6040516001600160e01b031990911681526020015b60405180910390f35b348015610131575f80fd5b50610145610140366004610bbb565b6102af565b005b348015610152575f80fd5b5061015c60015481565b60405190815260200161011d565b348015610175575f80fd5b505f54610188906001600160a01b031681565b6040516001600160a01b03909116815260200161011d565b3480156101ab575f80fd5b506101bf6101ba366004610bf4565b610460565b60405161011d9190610c4a565b3480156101d7575f80fd5b506101456101e6366004610c7f565b610631565b3480156101f6575f80fd5b5061015c683635c9adc5dea0000081565b348015610212575f80fd5b506101bf610221366004610ca7565b6106f2565b348015610231575f80fd5b50610254610240366004610d2b565b60026020525f908152604090205460ff1681565b604051901515815260200161011d565b34801561026f575f80fd5b5061010861027e366004610d4b565b63f23a6e6160e01b9695505050505050565b34801561029b575f80fd5b506101886102aa366004610dac565b6108d4565b5f546001600160a01b031633146102fe5760405162461bcd60e51b815260206004820152600e60248201526d13db9b1e48185c98da1a5d1958dd60921b60448201526064015b60405180910390fd5b6001600160a01b0382166103435760405162461bcd60e51b815260206004820152600c60248201526b5a65726f206164647265737360a01b60448201526064016102f5565b5f546001600160a01b03908116908316036103a05760405162461bcd60e51b815260206004820152601760248201527f43616e6e6f74207265766f6b652061726368697465637400000000000000000060448201526064016102f5565b6001600160a01b0382165f908152600260205260409020805460ff1916821580159190911790915561041757600380546001810182555f919091527fc2575a0e9e593c00f959f8c92f12db2869c3395a3b0502d05e2516446f71f85b0180546001600160a01b0319166001600160a01b0384161790555b816001600160a01b03167f278b09622564dd3991fe7744514513d64ea2c8ed2b2b9ec1150ad964fde80a9982604051610454911515815260200190565b60405180910390a25050565b335f9081526002602052604090205460609060ff166104bb5760405162461bcd60e51b81526020600482015260176024820152762737ba1030baba3437b934bd32b21032bc32b1baba37b960491b60448201526064016102f5565b683635c9adc5dea00000841061053f575f546001600160a01b03163314806104e057505f5b61053f5760405162461bcd60e51b815260206004820152602a60248201527f4c61726765207472616e736665722072657175697265732061726368697465636044820152691d08185c1c1c9bdd985b60b21b60648201526084016102f5565b5f80866001600160a01b031686868660405161055c929190610dc3565b5f6040518083038185875af1925050503d805f8114610596576040519150601f19603f3d011682016040523d82523d5f602084013e61059b565b606091505b5091509150816105e05760405162461bcd60e51b815260206004820152601060248201526f115e1958dd5d1a5bdb8819985a5b195960821b60448201526064016102f5565b866001600160a01b03167f12b246851a13a3216a99e5d8fb3b321e6ec2d3cea1eff08a997dd93151fc0ff98787873360405161061f9493929190610dfa565b60405180910390a29695505050505050565b5f546001600160a01b03161561067f5760405162461bcd60e51b8152602060048201526013602482015272105b1c9958591e481a5b9a5d1a585b1a5e9959606a1b60448201526064016102f5565b5f80546001600160a01b039093166001600160a01b0319938416811782556001928355808252600260205260408220805460ff1916841790556003805493840181559091527fc2575a0e9e593c00f959f8c92f12db2869c3395a3b0502d05e2516446f71f85b9091018054909216179055565b335f9081526002602052604090205460609060ff1661074d5760405162461bcd60e51b81526020600482015260176024820152762737ba1030baba3437b934bd32b21032bc32b1baba37b960491b60448201526064016102f5565b5f87878787463060405160200161076996959493929190610e2c565b6040516020818303038152906040528051906020012090505f6107b8827f19457468657265756d205369676e6564204d6573736167653a0a3332000000005f908152601c91909152603c902090565b90505f6107fc86868080601f0160208091040260200160405190810160405280939291908181526020018383808284375f9201919091525086939250506108fc9050565b5f549091506001600160a01b0380831691161461085b5760405162461bcd60e51b815260206004820152601b60248201527f496e76616c696420617263686974656374207369676e6174757265000000000060448201526064016102f5565b604051635b0e93fb60e11b8152309063b61d27f690610884908d908d908d908d90600401610e72565b5f604051808303815f875af115801561089f573d5f803e3d5ffd5b505050506040513d5f823e601f3d908101601f191682016040526108c69190810190610eb7565b9a9950505050505050505050565b600381815481106108e3575f80fd5b5f918252602090912001546001600160a01b0316905081565b5f805f8061090a8686610924565b92509250925061091a828261096d565b5090949350505050565b5f805f835160410361095b576020840151604085015160608601515f1a61094d88828585610a29565b955095509550505050610966565b505081515f91506002905b9250925092565b5f82600381111561098057610980610f62565b03610989575050565b600182600381111561099d5761099d610f62565b036109bb5760405163f645eedf60e01b815260040160405180910390fd5b60028260038111156109cf576109cf610f62565b036109f05760405163fce698f760e01b8152600481018290526024016102f5565b6003826003811115610a0457610a04610f62565b03610a25576040516335e2f38360e21b8152600481018290526024016102f5565b5050565b5f80807f7fffffffffffffffffffffffffffffff5d576e7357a4501ddfe92f46681b20a0841115610a6257505f91506003905082610ae7565b604080515f808252602082018084528a905260ff891692820192909252606081018790526080810186905260019060a0016020604051602081039080840390855afa158015610ab3573d5f803e3d5ffd5b5050604051601f1901519150506001600160a01b038116610ade57505f925060019150829050610ae7565b92505f91508190505b9450945094915050565b80356001600160a01b0381168114610b07575f80fd5b919050565b5f8083601f840112610b1c575f80fd5b50813567ffffffffffffffff811115610b33575f80fd5b602083019150836020828501011115610b4a575f80fd5b9250929050565b5f805f805f60808688031215610b65575f80fd5b610b6e86610af1565b9450610b7c60208701610af1565b935060408601359250606086013567ffffffffffffffff811115610b9e575f80fd5b610baa88828901610b0c565b969995985093965092949392505050565b5f8060408385031215610bcc575f80fd5b610bd583610af1565b915060208301358015158114610be9575f80fd5b809150509250929050565b5f805f8060608587031215610c07575f80fd5b610c1085610af1565b935060208501359250604085013567ffffffffffffffff811115610c32575f80fd5b610c3e87828801610b0c565b95989497509550505050565b602081525f82518060208401528060208501604085015e5f604082850101526040601f19601f83011684010191505092915050565b5f8060408385031215610c90575f80fd5b610c9983610af1565b946020939093013593505050565b5f805f805f8060808789031215610cbc575f80fd5b610cc587610af1565b955060208701359450604087013567ffffffffffffffff80821115610ce8575f80fd5b610cf48a838b01610b0c565b90965094506060890135915080821115610d0c575f80fd5b50610d1989828a01610b0c565b979a9699509497509295939492505050565b5f60208284031215610d3b575f80fd5b610d4482610af1565b9392505050565b5f805f805f8060a08789031215610d60575f80fd5b610d6987610af1565b9550610d7760208801610af1565b94506040870135935060608701359250608087013567ffffffffffffffff811115610da0575f80fd5b610d1989828a01610b0c565b5f60208284031215610dbc575f80fd5b5035919050565b818382375f9101908152919050565b81835281816020850137505f828201602090810191909152601f909101601f19169091010190565b848152606060208201525f610e13606083018587610dd2565b905060018060a01b038316604083015295945050505050565b5f6bffffffffffffffffffffffff19808960601b168352876014840152858760348501379490910160348101939093525060601b90911660548201526068019392505050565b60018060a01b0385168152836020820152606060408201525f610e99606083018486610dd2565b9695505050505050565b634e487b7160e01b5f52604160045260245ffd5b5f60208284031215610ec7575f80fd5b815167ffffffffffffffff80821115610ede575f80fd5b818401915084601f830112610ef1575f80fd5b815181811115610f0357610f03610ea3565b604051601f8201601f19908116603f01168101908382118183101715610f2b57610f2b610ea3565b81604052828152876020848701011115610f43575f80fd5b8260208601602083015e5f928101602001929092525095945050505050565b634e487b7160e01b5f52602160045260245ffdfea2646970667358221220710e86f9ead1d6a9798e3fa6d0d57ef9ea236beeef4802acf1a601fc02f2250f64736f6c63430008190033",
  "linkReferences": {},
  "deployedLinkReferences": {}
}